:020000040800F2
:10000000580700202D020008CF160008D915000857
:10001000CD16000823040008FB21000800000000A2
:10002000000000000000000000000000A91D000802
:100030002504000800000000D1160008AB1D0008D0
:10004000470200084702000847020008470200086C
:10005000470200084702000847020008470200085C
:10006000470200084702000847020008470200084C
:10007000470200084702000847020008470200083C
:10008000470200084702000847020008470200082C
:10009000470200084702000847020008470200081C
:1000A000470200084702000847020008470200080C
:1000B000470200080000000000000000470200089E
:1000C000470200080000000000000000470200088E
:1000D000000000004702000847020008000000007E
:1000E000470200084702000800000000000000006E
:1000F0000000000000000000000000000000000000
:10010000000000000000000000000000470200089E
:10011000000000000000000047020008470200083D
:10012000470200084702000847020008470200088B
:10013000470200080000000000000000000000006E
:10014000470200084702000847020008470200086B
:10015000470200084702000847020008470200085B
:10016000470200084702000847020008000000009C
:1001700047020008470200080000000000000000DD
:1001800047020008470200084702000800F002F892
:1001900000F03CF80AA090E8000C82448344AAF1E5
:1001A0000107DA4501D100F031F8AFF2090EBAE8E3
:1001B0000F0013F0010F18BFFB1A43F0010318479B
:1001C000F8C0000018C10000103A24BF78C878C1F8
:1001D000FAD8520724BF30C830C144BF04680C604D
:1001E000704700000023002400250026103A28BF95
:1001F00078C1FBD8520728BF30C148BF0B60704799
:100200001FB502F030F81FBD10B510BD00F0CFF8DB
:100210001146FFF7F5FF02F015F800F0EDF803B412
:10022000FFF7F2FF03BC00F0F5F800000948804733
:1002300009480047FEE7FEE7FEE7FEE7FEE7FEE7C8
:10024000FEE7FEE7FEE7FEE704480549054A064BE0
:1002500070470000251E00088D010008580100208D
:1002600058070020580300205803002053EA020CCE
:1002700000F069802DE9F04B4FF00006002B1FBF06
:10028000B3FA83F503FA05F424FA05F65E4012BFCB
:100290001643B2FA82F502FA05F4C5F120051EBF35
:1002A00022FA05FC44EA0C04203556EA044C4FEAD5
:1002B000144418BF641C4FF000084FF0000990422E
:1002C00071EB030C39D3002919BFB1FA81F701FA98
:1002D00007F6B0FA80F700FA07F6C7F120071EBF4D
:1002E00020FA07FC46EA0C062037B6FBF4FCA7EB25
:1002F0000507103F07F01F0BCBF120060CFA0BFB94
:100300002CFA06F644BFB3460026202FA4BF5E4653
:100310004FF0000B5BEA060C08BF4FF0010B19EB26
:100320000B09ABFB027C48EB0608C01B06FB02CCAA
:100330000BFB03CC71EB0C01C1E70B4602464146B7
:100340004846BDE8F08B13B54FF000004FF00001B8
:10035000AFF30080BDE81C4070474FF0000200B5CD
:10036000134694469646203922BFA0E80C50A0E8D8
:100370000C50B1F12001BFF4F7AF090728BFA0E886
:100380000C5048BF0CC05DF804EB890028BF40F852
:10039000042B08BF704748BF20F8022B11F0804F94
:1003A00018BF00F8012B70477047704770477546BB
:1003B00000F02CF8AE4605006946534620F00700D1
:1003C000854618B020B5FFF73FFFBDE820404FF04D
:1003D00000064FF000074FF000084FF0000B21F02F
:1003E0000701AC46ACE8C009ACE8C009ACE8C009FC
:1003F000ACE8C0098D46704710B50446AFF30080E5
:100400002046BDE81040FFF70ABF000000487047D3
:10041000F800002001491820ABBEFEE726000200CC
:100420007047FEE7704772B6FEE7000070B50446FD
:1004300000F014F90546601C02D00448007804441A
:1004400000F00CF9401BA042FAD370BD0000002060
:100450002DE9F04FDFF8E091002301270326A9F1F1
:10046000040B85B00F2509F1040AABF1040EDBE0A3
:1004700007FA03FC12EA0C027ED00C7904F00304A4
:10048000012C01D0022C20D1846800945C0006FA73
:1004900004F80494009C24EA08040094D1F80C8029
:1004A000049C08FA04F8009C48EA0408C0F8088094
:1004B000446824EA0C0491F804C0CCF3001C0CFA44
:1004C00003FC4CEA040CC0F804C00C79E443A40714
:1004D0000DD0D0F80CC04FEA430806FA08F42CEA15
:1004E000040C8C6804FA08F444EA0C04C4600C7927
:1004F00004F00304022C19D1DC0800EB84040294FC
:10050000246A4FEA437C4FEADC6CCDF810C005FA50
:100510000CFC24EA0C04D1F81080DDF810C008FAB5
:100520000CF848EA0408029CC4F8208004684FEAEA
:10053000430806FA08FC24EA0C0491F804C00CF005
:10054000030C0CFA08FC4CEA040CC0F800C04C6820
:1005500014F4403F67D0394CD4F860C04CF0010C23
:10056000C4F860C0246E23F0030C04F0010400946E
:10057000334C6444029400E055E0A4684FEA837C65
:100580004FEA1C7805FA08FC24EA0C04B0F1904FFD
:1005900006D0DFF8B0C0604505D14FF0010C0BE08C
:1005A0004FF0000C08E0DFF8A0C0604502D14FF02A
:1005B000020C01E04FF0070C0CFA08FC4CEA040CAA
:1005C000029CC4F808C0D9F80040CC46D1F8048099
:1005D00094435FEAC82800D51443CCF80040DAF809
:1005E0000040D446D1F8048094435FEA882800D5BF
:1005F0001443CCF80040DBF80040DC46D1F804801E
:1006000094435FEA883800D51443CCF80040DEF804
:100610000040F446D1F8048094435FEAC83800D51E
:100620001443CCF800405B1C0C682246DC407FF48D
:100630001FAF05B000F00AB80804014000100240E6
:1006400000000140000400480008004830BCBDE83C
:10065000C08F0AB18161704781627047014880682C
:1006600070470000000000200248816802781144B1
:10067000816070470000002010B50024032000F0C6
:1006800063F8002000F008F808B1012401E000F050
:1006900025F8204610BD000070B50E4E054600241A
:1006A000307898B14FF47A71B1FBF0F00A490968DB
:1006B000B1FBF0F000F001FF40B9102D06D200228E
:1006C0002946501E00F020F8756000E00124204605
:1006D00070BD0000000000200C000020094808B593
:1006E000016E41F001010166016E01F0010100910E
:1006F000816D41F080518165806D00F080500090E7
:1007000008BD000000100240F0B40E4B1B680C4600
:10071000C3F30223C3F10705042D00D90425191DD5
:10072000072901D2002300E0DB1E012606FA05F1AD
:10073000491E214099409E40761E16403143F0BC30
:1007400001F05CBD0CED00E0064900F0070208680E
:100750004FF6FF03184040EA0220034A10430860A6
:10076000704700000CED00E00000FA051649B0F5F6
:10077000007F0868C0F3412009D0022805D008682E
:1007800020F4C06040F480600860002070470128B9
:10079000FBD0086820F4C06040F4007008600B488B
:1007A0003222006850430A4AB0FBF2F0401C00E0DD
:1007B000401E4A69520501D50028F9D14869400513
:1007C000E3D5032070470000007000400C000020BB
:1007D00040420F000248006800F4C060704700000B
:1007E000007000402DE9F84F0446002700889C4D1A
:1007F0003E46000515D5E06B60B1B0F5000F04D0A2
:10080000B0F5400F2BD001270AE0E86840F48030B3
:10081000E86024E00021201D00F05CFF07001ED0EE
:100820003E462068800338D5A86D4FF00008C00010
:1008300009D4A86D40F08050A865A86D4FF001085C
:1008400000F080500090DFF81CA2DAF8001041F4AC
:100850008071CAF80010FFF701FF814610E0D5F85B
:100860008800E16B20F440000843C5F88800D8E711
:10087000FFF7F4FEA0EB0900022801D9032704E0EA
:10088000DAF80000C005F3D5EFB33E46B8F1000F2B
:1008900003D0A86D20F08050A8652078C00707D04D
:1008A000D5F88800216A20F003000843C5F88800C5
:1008B0002078800707D5D5F88800616A20F00C0001
:1008C0000843C5F888002078800607D5D5F8880049
:1008D000A16A20F440600843C5F88800208880059C
:1008E00007D5D5F88800616B20F440200843C5F88F
:1008F00088002088400509D5D5F88800A16B20F430
:100900004010084300E02EE0C5F88800207840063B
:1009100007D5D5F88800E16A20F440500843C5F8AF
:1009200088002088C00507D5D5F88800216B20F401
:1009300040300843C5F8880020884FF000678004E5
:100940004FF080684ED5D5F88800216C20F04060CB
:100950000843C5F88800206CB8423BD1E86840F4F1
:100960008010E8603EE0D5F8900010F4407014D09C
:10097000216D814211D0D5F89000D5F8901020F467
:10098000407041F48031C5F89010D5F8901021F4F2
:100990008031C5F89010C5F89000C00711D0FFF75E
:1009A0005DFE074641F2883907E000BFFFF756FEBB
:1009B000C11B494501D9032668E7D5F89000800797
:1009C000F4D5D5F89000216D20F440700843C5F8A7
:1009D00090005BE7404505D10121201D00F07AFE23
:1009E00000B106462068400317D5D5F88800616C31
:1009F00020F040600843C5F88800606CB84204D11C
:100A0000E86840F48010E86007E0404505D1012126
:100A1000201D00F05FFE00B106462088400411D57D
:100A2000D5F88800A16C20F040500843C5F8880034
:100A3000A06CB0F1805F05D10221201D00F04AFEBC
:100A400000B106462088000406D555F8880FE16CF1
:100A500020F0804008432860304600F005B80000D0
:100A6000001002400070004018BCBDE8E08F00009C
:100A70002DE9F0470F46050058D0404E306800F091
:100A80000700B84209D2306820F0070038433060D0
:100A9000306800F00700B84248D12878384CC007C9
:100AA0002CD06868032811D0022812D0216898B190
:100AB000490500293ADAA16821F003010143A16048
:100AC000FFF7CCFD804641F2883910E021688901AA
:100AD000EFE721688903ECE78907EAE7FFF7BEFD46
:100AE000A0EB0801494502D90320BDE8F087A068C2
:100AF000696800F00C00B0EB810FEFD12878800717
:100B000005D5A068A96820F0F0000843A06030680F
:100B100000F00700B8420BD9306820F007003843D6
:100B20003060306800F00700B84201D00120DCE7F7
:100B30002878400705D5A068E96820F4E0600843FC
:100B4000A0602878000706D5A068296920F46050C5
:100B500040EAC100A06000F03FF8A168094AC1F373
:100B60000311515C01F01F01C840074908600748A4
:100B70000068BDE8F047FFF78FBD0000002002408D
:100B80000010024070C200080C0000200400002089
:100B90000548064900688968054AC1F30221515C8D
:100BA00001F01F01C84070470C00002000100240F7
:100BB000B0C200080548064900688968054AC1F3C3
:100BC000C221515C01F01F01C84070470C00002099
:100BD00000100240B0C2000870B525490023184635
:100BE0008A68CC6812F00C0204F00306214C4FEA2C
:100BF000640509D00C2A05D0042A32D0082A00D175
:100C0000284670BD012E10D10B681B0704D4D1F803
:100C10009430C3F3032302E00B68C3F30313164EAF
:100C200056F82330DAB10C2AEBD1C86800F0030083
:100C3000022818D0032818D01846CA68CB68C2F317
:100C40000212C3F306234343521CB3FBF2F2C868FB
:100C5000C0F34160401C4000B2FBF0F070BD18468C
:100C600070BD204670BD2046E7E72846E5E7000056
:100C7000001002400024F40080C200082DE9F8436F
:100C800004006FD0FE4DA86800F00C06E86800F084
:100C900003072078C00664D576B10C2E01D1012F50
:100CA0000AD0A069002828687AD040F001002860A6
:100CB000FFF7D4FC80465DE02868800702D5A06974
:100CC0000028DED0216A2868000703D5286800F0D4
:100CD000F00004E0D5F89400F02202EA10108142FE
:100CE00016D9084600F08CFD00283BD1286840F05A
:100CF000080028602868216A20F0F0000843286076
:100D00006868E16920F47F4040EA0120686016E0ED
:100D1000286840F0080028602868216A20F0F00068
:100D2000084328606868E16920F47F4040EA0120B8
:100D3000686026B9206A00F063FD0028D5D1FFF76E
:100D40004BFFA968CF4AC1F30311515C01F01F01A9
:100D5000C840CD490860CD480068FFF79DFC0028D9
:100D60007ED12EE0CAE000BFFFF778FCA0EB0800C0
:100D7000022876D828688007F6D5286840F0080051
:100D800028602868216A20F0F0000843286068681D
:100D9000E16920F47F4040EA0120686011E0FFE74C
:100DA00020F001002860FFF759FC804606E000BFF4
:100DB000FFF754FCA0EB08000228DAD82868800767
:100DC000F6D42078C00740D0082E18D00C2E01D1C0
:100DD000032F14D06068B0F5803F17D0B0F5A02F76
:100DE000286817D020F480302860286820F48020FC
:100DF00028606068E0B1FFF731FC804614E02868A5
:100E0000800322D56068002878D01EE0286840F46E
:100E10008030EDE740F480202860F7E7FFF71EFC04
:100E2000A0EB08006428A4D828688003F6D50CE05D
:100E3000FFF714FC804605E0FFF710FCA0EB08006C
:100E4000642896D828688003F6D4207880073BD59C
:100E5000042E11D00C2E01D1022F0DD0E06801E03C
:100E6000B6E1FFE0002828681ED040F480702860BA
:100E7000FFF7F4FB07460CE0286840050CD5E06856
:100E80000028C1D008E000BFFFF7E8FBC01B022824
:100E900093D828684005F7D56868217C20F0F85081
:100EA00040EA016068600FE020F480702860FFF77E
:100EB000D5FB074605E000BFFFF7D0FBC01B0228AB
:100EC000B1D828684005F7D42078000729D5606993
:100ED0000028D5F8940012D040F00100C5F8940025
:100EE000FFF7BCFB074604E0FFF7B8FBC01B022876
:100EF00099D8D5F894008007F6D512E02BE120F0C0
:100F00000100C5F89400FFF7A9FB074605E000BF04
:100F1000FFF7A4FBC01B022885D8D5F894008007F2
:100F2000F6D42078400766D5A86D0027C00008D405
:100F3000A86D40F08050A865A86D012700F0805092
:100F4000009053480168C90512D40168814641F4F4
:100F500080710160FFF782FB804605E0FFF77EFBB2
:100F6000A0EB080002287DD8D9F80000C005F5D50F
:100F7000A068012816D00528D5F8900017D020F0D9
:100F80000100C5F89000D5F8900020F0040000BFE3
:100F9000C5F89000A06841F28839C0B1FFF75EFB48
:100FA00080460FE0D5F8900040F00100F0E740F0F7
:100FB0000400C5F89000F5E7FFF750FBA0EB08012F
:100FC00049454FD8D5F890008007F5D50EE0FFF7DA
:100FD00045FB804606E000BFFFF740FBA0EB0801A1
:100FE00049453FD8D5F890008007F5D41FB1A86DCA
:100FF00020F08050A8652078800628D5606A0028F7
:10100000D5F8980012D040F00100C5F89800FFF71D
:1010100025FB074605E000BFFFF720FBC01B0228A9
:1010200020D8D5F898008007F6D510E020F0010010
:10103000C5F89800FFF712FB074604E0FFF70EFB28
:10104000C01B02280ED8D5F898008007F6D4A06AF5
:10105000A8B1022824D00C2E7DD0286820F0807002
:10106000286000E0B3E02868000103D4E86820F0BD
:101070000300E860E86807490840E8600CE09FE08A
:101080000010024070C200080C0000200400002084
:1010900000700040FFFFEEFEFFF7E0FA044699E023
:1010A000E868E26A00F00301914226D1216B00F06A
:1010B00070020901103991421FD1626B00F4FE41A8
:1010C000B1EB022F19D194F8382000F07841B1EB40
:1010D000C26F12D1A18F00F4C00249084905A1F5E1
:1010E0000011914209D194F8401000F0C060490805
:1010F0004906A1F1007181424BD00C2E6FD02868B7
:1011000040016CD4286820F080702860FFF7A6FAB0
:10111000064604E0FFF7A2FA801B022857D8286889
:101120008001F7D4F4E90B016FF00F0202EB01111B
:101130000843218A5204490802EB4151A26841EA5E
:1011400002210843217D4FF07E42490802EB4161B4
:101150000843217B00E042E040EAC160E968214A9F
:1011600011400843E860286840F080702860E86813
:1011700040F08070E860FFF771FA044605E000BFB8
:10118000FFF76CFA001B022821D828688001F7D5E8
:1011900023E02868800120D4286840F0807028600F
:1011A000E86840F08070E860FFF758FA044604E011
:1011B000FFF754FA001B022809D828688001F7D5E8
:1011C0000BE000BFFFF74AFA001B022802D90320F8
:1011D000BDE8F88328688001F4D40020F8E70120F6
:1011E000F6E700008C809D0170B5040009D0606AAC
:1011F000002540B125616561A56294F85D0040B1AC
:101200000CE0012070BD6068B0F5827FF4D0E5612C
:10121000F2E784F85C50204600F056F8022084F88B
:101220005D002068016821F040010160E1684FF431
:10123000E062914201D9002001E04FF48050B1F505
:10124000706F02D0914200D0A562A188228901F47A
:10125000827102F404421143227C02F00202114323
:10126000227D02F001021143228B02F4007211432D
:10127000227F02F03802114394F8202002F080020D
:101280001143228D02F40052114322681160A169BA
:10129000042202EA114194F8242000F4805002F064
:1012A0001002114394F8342002F008021143A2897D
:1012B00002F47062114301432068416025660120F9
:1012C00084F85D00002070BD10B586B0044614217E
:1012D0006846FFF742F81249206888421ED111483B
:1012E000816D41F400418165816D01F400410591FA
:1012F000C16C41F00201C164C06C694600F002009B
:1013000005902820009002200190002002900320E8
:101310000390062004900448FFF79AF806B010BD29
:10132000003C004000100240000400482DE9F84F46
:10133000044690F85C0000271D46164689460128A1
:101340000DD04FF0010B84F85CB0FFF787F98046B1
:1013500094F85D00BA46012804D00227A4E00220D8
:1013600000F0A8B8B9F1000F74D0002E72D003209D
:1013700084F85D00C4F860A0C4F83890A687E687BA
:10138000C4F840A0A4F844A0A4F846A0C4F850A013
:10139000C4F84CA0A068B0F5004F09D120680168DE
:1013A00021F0400101602068016841F48041016042
:1013B00020680168490603D4016841F040010160DA
:1013C000E068B0F5E06F606823D908B1012E1CD148
:1013D000A06B21680088C86006E0206881688907E2
:1013E00009D5A16B0988C160A06B801CA063E08F48
:1013F000401EE08709E0FFF731F9A0EB0800A842A2
:1014000002D3681C01D046E0ADB3E08F0028E4D1E0
:1014100036E008B1012E30D1E08F0128A06B03D94E
:1014200021680088C8600FE021680078087314E024
:10143000E08722E020688168890714D5E18F0129BF
:10144000A16B08D90988C160A06B801CA063E08FE4
:10145000801EEDE727E009780173A06B401CA063B4
:10146000E08F401EE4E7FFF7F9F8A0EB0800A84280
:1014700002D3681C01D00EE06DB1E08F0028D9D1F5
:1014800042462946204600F0F9F908B1202020669E
:10149000A06810B105E0032706E02068C1688068F5
:1014A0000090206E00B1012784F85DB084F85CA044
:1014B000384655E718BCBDE8E08F10B5401EB0F1C6
:1014C000807F01D3012010BD4FF0E02460610F2127
:1014D000601700F093FE0020A0610720206100202B
:1014E00010BD10B5040002D0A06F10B107E00120BC
:1014F00010BD002084F87400204600F025F8242058
:10150000A0672068016821F001010160204600F019
:1015100023FD0128ECD0606A10B1204600F08AFC5F
:101520002068416821F4904141602068816821F081
:101530002A0181602068016841F0010101602046B4
:10154000BDE8104000F0DABCF0B59BB004461421B1
:1015500015A8FEF702FF54216846FEF7FEFE1C495F
:101560002068884232D102240026684609960094F9
:10157000FFF738F908B1FEF756FF1648816D41F4C0
:1015800000318165816D01F400311A91C16C41F027
:101590000101C164C06C15A900F001001A9004207B
:1015A00081E8510003250720CDE918504FF09047FE
:1015B0003846FEF74DFFCDE917654FF40040199509
:1015C000CDE9150415A93846FEF742FF1BB0F0BD62
:1015D0000044004000100240FEE7000010B586B055
:1015E00014216846FEF7B9FE1648C16C41F00401AB
:1015F000C164C16C01F004010591C16C41F00101AD
:10160000C164C16C01F001010591C16C41F002019E
:10161000C164C06C4FF0904400F0020005900022BD
:101620002A212046FFF715F82A20009001200021EA
:10163000CDE90101039169462046FEF709FF06B096
:1016400010BD000000100240114810B50F490160A4
:101650004FF48271416000214FF4E062C0E9021250
:101660004FF400720161C0E905121022C0E90721A0
:1016700007224162C0E90A12016308214163FFF7B2
:10168000B3FD002801D072B6FEE710BD003C00405B
:10169000100000200C4810B50A4901604FF4E131F8
:1016A0004160002181600C22C160C0E904128161A7
:1016B000C16101624162FFF714FF002801D072B6D8
:1016C000FEE710BD0044004074000020FEE7FEE786
:1016D000704700002DE9F041444C05468846E0681B
:1016E0000026810728680DD0E16801F003018142DE
:1016F00016D1A8B1E0686968C0F30210401C8842A6
:101700000ED120E0012804D0022805D0032807D1FB
:1017100008E02168890701E021684905002907DB05
:1017200001265FE02168890302D421684903F5E7B7
:10173000E1686A686FF00F0321F0730103EB021296
:1017400011430143E160206820F080602060FEF7D3
:1017500085FF074605E000BFFEF780FFC01B02289B
:1017600037D820680001F7D4B8F1000F18D0B8F1CD
:10177000010F1DD0287D4FF07E41400801EB4060F5
:10178000A96840EA01202169194A114008432061F3
:10179000206840F080602060FEF760FF07461AE096
:1017A000A868297B000240EAC1602169114AECE780
:1017B000288A1149400801EB4050A96840EA0120FD
:1017C00021690E4AE1E700BFFEF748FFC01B02286F
:1017D00001D9032606E020680001F5D52069A96932
:1017E000084320613046BDE8F0810000001002404F
:1017F000FF80FFF9FF80FF070000E0FFFF809FFFF1
:10180000F8B51C4D06460024A86DC00002D5FEF7B1
:10181000E1FF0DE0A86D40F08050A865A86D00F0D4
:1018200080500090FEF7D6FFA96D21F08051A96588
:10183000B0F5007F04D0802E07D94FF003040AE0F2
:10184000802E08D9A02E01D804E001D1022402E0A4
:10185000702E00D101240848016821F007012143BE
:101860000160006800F00700A04201D00120F8BD2F
:101870000020F8BD0010024000200240F8B51546D7
:101880000E460B460092044600224FF4C05100F071
:1018900019F888B93346002280212046009500F0CF
:1018A00085F848B9334600224FF4C06120460095C0
:1018B00000F008F8002804D0206E40F020002066D8
:1018C0000320F8BD2DE9FE4F4FF0000A9846174659
:1018D0000E4604460C9D8DF804A0FEF7BFFE411B8A
:1018E000A8EB0105FEF7BAFE814620684FF4C06BF5
:1018F0000C3002902A480068C0EBC00000EB80006A
:10190000000D6843009043E05E4506D12FB9029870
:1019100000788DF804009DF80400B8F1FF3F37D03F
:10192000FEF79CFEA0EB0900A84203D215B1009877
:1019300058B32BE02068416821F0E0014160606805
:10194000B0F5827F0BD1A068B0F5004F02D0B0F5A2
:10195000806F04D12068016821F040010160A06A15
:10196000B0F5005F09D12068016821F400510160E1
:101970002068016841F400510160012084F85D0095
:1019800084F85CA0032000F00DB80025401E0090F4
:10199000206880683040B842B6D10020F3E70000EC
:1019A0000C0000201EBCBDE8E08F00002DE9F843CC
:1019B0001E46914688460446089DFEF74FFE401B92
:1019C000351AFEF74BFE074625480068C0F3CB30BA
:1019D000684338E0701C37D0FEF740FEC01BA842B9
:1019E00003D215B1009860B32CE02068416821F063
:1019F000E00141606068B0F5827F0BD1A068B0F56E
:101A0000004F02D0B0F5806F04D12068016821F04A
:101A100040010160A06AB0F5005F09D1206801684B
:101A200021F4005101602068016841F40051016017
:101A3000012084F85D00002084F85C000320BDE8EC
:101A4000F8830025401E00902068816838EA010074
:101A500004D000214945BDD10020F0E70121F9E77C
:101A60000C00002001B5012220214FF09040FEF72C
:101A7000F0FD4FF0FF33012269460248FFF756FCA4
:101A800008BD00001000002070B500218023A022B6
:101A9000084600F026F800244FF4A0450020FFF788
:101AA000E1FF0020FFF7DEFF641CAC42F6D3BDE887
:101AB0007040012202214FF09040FEF7CABD10B5E0
:101AC0004FF09044002208212046FEF7C2FD052079
:101AD000FEF7ACFC20460122BDE810400821FEF7CD
:101AE000B8BD2DE9F04116460F4604461D460022BA
:101AF00002214FF09040FEF7ACFD2A2000F042F9A1
:101B00000020FFF7AFFF2046FFF7ACFF0020FFF7F4
:101B1000A9FF3046FFF7A6FF2B2000F033F9002085
:101B2000FFF7A0FF3846FFF79DFF0020FFF79AFF61
:101B30002846FFF797FFBDE8F0412C2000F022B9BE
:101B400010B54FF09044002202212046FEF781FD9F
:101B5000FFF7B5FF012000F015F99620FEF766FCAF
:101B6000112000F00FF9FF20FEF760FCB12000F01B
:101B700009F90120FFF776FF2C20FFF773FF2D20D6
:101B8000FFF770FFB22000F0FDF80120FFF76AFFB9
:101B90002C20FFF767FF2D20FFF764FFB32000F034
:101BA000F1F80120FFF75EFF2C20FFF75BFF2D20EF
:101BB000FFF758FF0120FFF755FF2C20FFF752FFDA
:101BC0002D20FFF74FFFB42000F0DCF80720FFF7CF
:101BD00049FFC02000F0D6F8A220FFF743FF022003
:101BE000FFF740FF8420FFF73DFFC12000F0CAF857
:101BF000C520FFF737FFC22000F0C4F80A20FFF726
:101C000031FF0020FFF72EFFC32000F0BBF88A2031
:101C1000FFF728FF2A20FFF725FFC42000F0B2F8C5
:101C20008A20FFF71FFFEE20FFF71CFFC52000F002
:101C3000A9F80E20FFF716FF202000F0A3F83620A9
:101C400000F0A0F8A020FFF70DFF3A2000F09AF86E
:101C50000520FFF707FF2A2000F094F80020FFF787
:101C600001FF0020FFF7FEFE0020FFF7FBFE7F20B4
:101C7000FFF7F8FE2B2000F085F80020FFF7F2FEBA
:101C80000020FFF7EFFE0020FFF7ECFE9F20FFF79C
:101C9000E9FEE02000F076F80220FFF7E3FE1C20CA
:101CA000FFF7E0FE0720FFF7DDFE1220FFF7DAFE68
:101CB0003720FFF7D7FE3220FFF7D4FE2920FFF7A9
:101CC000D1FE2D20FFF7CEFE2920FFF7CBFE2520E9
:101CD000FFF7C8FE2B20FFF7C5FE3920FFF7C2FE35
:101CE0000020FFF7BFFE0120FFF7BCFE0320FFF737
:101CF000B9FE1020FFF7B6FEE12000F043F8032004
:101D0000FFF7B0FE1D20FFF7ADFE0720FFF7AAFE8C
:101D10000620FFF7A7FE2E20FFF7A4FE2C20FFF7DA
:101D2000A1FE2920FFF79EFE2D20FFF79BFE2E200F
:101D3000FFF798FE2E20FFF795FE3720FFF792FE63
:101D40003F20FFF78FFE0020FFF78CFE0020FFF7FB
:101D500089FE0220FFF786FE1020FFF783FE132086
:101D600000F010F80A20FEF761FB292000F00AF8C5
:101D70006420FEF75BFB20460122BDE810400221F3
:101D8000FEF767BC01B5002220214FF09040FEF71E
:101D900060FC4FF0FF33012269460248FFF7C6FAA4
:101DA00008BD0000100000207047FEF75DBC00B5C4
:101DB00097B044216846FEF7D0FA142111A8FEF727
:101DC000CCFA4FF40070FEF7D1FC08B172B6FEE712
:101DD0000220C10103911021009004910A90012179
:101DE000CDE90B010C210D910721CDE90E10082042
:101DF00010906846FEF742FF08B172B6FEE70F206A
:101E0000119003201290002013901490159001213E
:101E100011A8FEF72DFE002801D072B6FEE717B01C
:101E200000BD00000248016841F470010160704784
:101E300088ED00E090F82410C90706D001684A68D0
:101E4000836A22F400321A434A6090F8241089070A
:101E500006D501684A68C36A22F480321A434A6090
:101E600090F82410490706D501684A68036B22F4EC
:101E700080221A434A6090F82410090706D50168A9
:101E80004A68436B22F400421A434A6090F82410D7
:101E9000C90606D501688A68836B22F480521A430A
:101EA0008A6090F82410890606D501688A68C36B99
:101EB00022F400521A438A6090F82410490611D582
:101EC00001684A68036C22F480121A434A60016C6C
:101ED000B1F5801F06D101684A68436C22F4C00244
:101EE0001A434A6090F82410090606D501684A682A
:101EF000806C22F4002202434A607047F8B5002645
:101F00000446C0F88060FEF7A9FB0546206800681B
:101F10006FF07E47000708D52B4600224FF40011D2
:101F20002046009700F006F960B920680068400775
:101F30000AD52B4600224FF480012046009700F07E
:101F4000F9F808B10320F8BD2020A067E0672666F5
:101F500084F874600020F8BD2DE9F0410446016862
:101F600080682269E66910436269002532431043A4
:101F7000694B0A68694E324002430A602068416832
:101F8000E26821F44051114341602168A0699942FF
:101F900001D0226A10438A6822F4306202438A60C8
:101FA0005F4927685F488F420DD1D0F8880010F054
:101FB000030006D0012838D0022834D0032821D1CC
:101FC00035E001211FE058498F420BD1D0F888003D
:101FD00010F00C0025D0042827D0082823D00C2886
:101FE00010D124E09F420DD1D0F8880010F4406059
:101FF00017D0B0F5806F18D0B0F5006F13D0B0F5E2
:10200000406F14D01021494A00264FF400409F42EF
:102010002FD171B102290FD004290FD0082973D113
:102020000FE00021EFE70221EDE70421EBE70821B3
:10203000E9E7FEF7ADFD03E0104602E0FEF7CCFD58
:10204000F0B3626802EB420181425DD8B0EB023F1F
:102050005AD8010E03025008181871410023FEF7E8
:1020600005F9334AA0F5407191424DD82168C86006
:102070004BE0E3694FF6EF77834228D1092943D239
:10208000DFE801F005080B420D4242421000FEF766
:102090007FFD06E0FEF78EFD03E0104602E0FEF74E
:1020A0009BFD68B14100606801EB5001B1FBF0F0AD
:1020B000A0F11001B94227D84FF6F071014000E0BD
:1020C00023E0C0F3420001432068C1601DE00929FC
:1020D0001AD2DFE801F005080B190D1919191000C3
:1020E000FEF756FD06E0FEF765FD03E0104602E050
:1020F000FEF772FD48B1616800EB5100B0FBF1F0F2
:10210000A0F11001B94205D9012566662846A666E8
:10211000BDE8F08180B2A9E700800040F369FFEFDD
:102120000038014000100240004400400024F40048
:10213000FFFC0F002DE9F0479A4617460E4604466D
:102140004FF000094FF02008089D4AE0681C48D075
:10215000FEF784FAA0EB0A00A8422AD84DB3206803
:10216000016849073DD5C069C043000539D42168DD
:102170004FF400600862206850E8001F21F4D0711D
:1021800040E80012002AF6D12068083050E8001F0D
:1021900021F0010140E80012002AF5D1C4F878804E
:1021A000C4F87C80C4F8808084F874900320BDE873
:1021B000F087216851E8000F20F4D07041E8000258
:1021C000002AF6D12068083050E8001F21F00101F4
:1021D00040E80012002AF5D1C4F87880C4F87C8069
:1021E000E2E72068C06936EA000004D00020B84267
:1021F000ACD00020DBE70120F9E7FEE70907090E74
:10220000002804DB00F1E02080F80014704700F0A3
:102210000F0000F1E02080F8141D704770B5002118
:102220008023A0220846FFF75CFC054D00244FF4F4
:102230002046285DFFF716FC641CB442F9DB70BD34
:1022400070220008FEF718FAFFF7B1FDFFF7C6F994
:10225000FFF7FAF9FFF71EFAFFF772FCFFF714FC1D
:10226000FFF7DCFFFEE74FF04070E1EE100A704729
:10227000EE35EE35EE36EE56F677F697F678F678DA
:10228000FE98FEB8FED9FEFAFEFAFED9FEB9FED9D6
:10229000FED8FEF8FEF8FED8FED8FEF8FF19FF5A69
:1022A000FF7AFF7AFF9BFF7BF719F73AFFBCFFFD30
:1022B000FFDDFFDDFFDDFFDDFFDDFFFEFFFEFFFEDB
:1022C000FFFDFFDDFFDDFFFDFFDDFFDDFFFDFFDDCE
:1022D000FFDDFFDDFFDDFFDDFFDDFFDDFFDDFFDD1E
:1022E000FFDDFFDCFFBCF79CF79DFFBDFFBDFFBD21
:1022F000F7BDEF9CFFFFFFFFF7BEFFDEF7DEEF7DD0
:10230000EF7DF7BDF7BEF79DFFFEFFDEFFDEF79D19
:10231000EF7DE73DEF9EF79DF7DEEF9DFFFFFFFFAF
:10232000FFDFFFFFEF7DCE38BDF7B596BDF7D6B91D
:10233000ADB58CF1D779E7FCEFFCEFBCFFFEFFDE1B
:10234000FFFEFFFFFFFFEF7DF7BEFFDEFFFFFFFF9A
:10235000EF9DFFFFDF3CCEDA7C70C6DA9D54A57599
:10236000FFFFFFFFFFDFF77EFFBFF7BEFFBFFFFFEF
:10237000FFFFF7BEEF9EC6798471A575C639FFFFD2
:10238000FFBFFFFFFFDFFFDFFFFFFFFFFFDFFFDF1D
:10239000FFDFFFFFFFFFFFFFFFFFFFFFFFFFFFDF8D
:1023A000CE9AEF5EFFFFFFFFFFFFDF1CFFFFE73D61
:1023B000EE56EE56EE56EE56EE57F677F678F6787F
:1023C000F678F698FE98FE98F698EE57EE57F67760
:1023D000FEB8FED8FED8FED8FEF8FED8F6D8F6D85D
:1023E000F6D8EED8EED8EED8E697EEB8F73AF75A28
:1023F000FF9CFF9CFF9CFF7CFF7CFF7CFF7CFF7CA5
:10240000FF5BEF1AE6D9E698E698E698E6B8E6B8F4
:10241000E6B8E6B8E6B8E6B8EEB8EEB8EED9EED96A
:10242000FF7BFF9CFFBCFFDDFFBDFF9CFF9DFFBD51
:10243000FFFEFFDEF79DF79DFFDEFFFFFFFFF79D2D
:10244000F79DF7DEFFDEF7BDFFBEFFBEFFDEF79EA6
:10245000EF7DEF5DF79EF79EF7BDEF9DFFFFFFFF5E
:10246000FFDFFFFFFFBED679D6BAC639AD54DEFA1C
:10247000428863AB7CAECF18C6F8DF3AEF9DF79D7C
:10248000EF7DE73CD6BAFFFFE73CEF5DEF7EEF9EC6
:10249000E75CDF5CE75CBE3884B2D71B7C71D6FAA0
:1024A000F7DEFFFFFFDFFFFFFFDFFFDFF7BEEF7DA0
:1024B000EF7DFFFFE77DA57595149D75DF3CFFFF60
:1024C000FFDFFFBFFFDFFFDFF7BFF79EFFDFFFFF8D
:1024D000FFFFFFDFFFDFFFFFFFFFFFFFFFFFC6394B
:1024E000FFFFD6DBFFFFEF7EF7DFFFFFDF1CC659E4
:1024F000DE16E616E636E636E636E616E616E63684
:10250000EE36EE37EE37EE56EE36E616EE16EE57B0
:10251000F677F697F697F6B7FED8FEB7F6B7F6B7A2
:10252000EE96EE77EE97EE97E677EE97F6D8F6D83A
:10253000EE77EE78EE78EE77E657E657E637E63751
:10254000E637E637E657EE77EE77EE57EE57E636A4
:10255000EE57EE57EE57EE57EE57EE57EE78EE98F1
:10256000E677E678E6B8EED9EF1AF73BFF9CFFFE78
:10257000FFDDFFFEFFFEFFFEFFBEFFBDFFDEF79D9E
:10258000F7BDF7BDF7BDFFDEFFDEFFFFFFDEF77D26
:10259000EF5DEF5DF79EF79EF7BDF79DFFDEFFFF56
:1025A000FFBFFFFFFFDED699DEDBBDF794D2D6FA80
:1025B0006BAB4B086C2BAE54A5F4DF5BF7DEF7DE9C
:1025C000F79EFFFFF79EFFFFF7DFF7BEFFFFF7DF86
:1025D000DF3CF7FFD71BB61773EFDF3C8471EFBE0C
:1025E000F7FFFFFFF7DFFFFFFFFFF7DFFFFFFFFF53
:1025F000F7DEFFFFC67973EFADF7DF3CF7FFFFFFB4
:10260000FFFFFFDFFFFFF7DFFFDFFFDFFFFFFFDF82
:10261000F7BFF7DFF7BEDF1CDEFBCE59C639B5D7F3
:10262000DF1CEF7EE75DFFFFEF5EBE18B5D7EFBFA3
:10263000D5B5D5D5DDD6DDD5D5D5D5B5D5B5DDB5B1
:10264000D5B4D594D574D594DDB4DDB4DDB4E5F559
:10265000EE15EE15EE15EE56F697F697F697F697F9
:10266000F697F697F6B7F6B8F6B7F697F697F697A1
:10267000F677F677F657F657EE57EE57EE57EE57D2
:10268000EE57EE37EE36EE16E5F5E5F5EE16EE36DC
:10269000EE37EE36EE16EE16EE36EE36F657F677E7
:1026A000EE36E657EE77EE98EEB8EE98EE98E698AE
:1026B000EEB9E698EEFAF73BFF9CFFDEFFBDFFBDEB
:1026C000FF9DFFDDFFDEFFFFF79DF7BEF7BEF79E24
:1026D000EF5DEF3DEF7EF79EF79DF77DFFBEFFDFDD
:1026E000FFFFFFFFFFFFD6BACE99B5B6AD95CEB8C6
:1026F000638A42C67CCD748C8D11EFFEE75CE73CAB
:10270000EF5DEF9EE73DCE9AAD75FFFF94D3A575C3
:10271000EF9DF7FFDF1BA574A575CEBAA595EFBE9B
:10272000DF5CE79DE75DDF3CDF1CDF1CC679BDF7A2
:10273000C638AD9694D3741084B29513A5559D14E4
:102740009CF494D394B394B38C928C72A514BE1859
:10275000C638CE79CE9AD6BAD6DBDEFBE73DA535B4
:10276000DF1CEF5EDF1CDEFCDF1CBDF8D6DBEF7E7E
:10277000CD95CDB5CD95CD94CD74CD53CD74CD94AF
:10278000CD74CD53C532C532CD32C532CD52D5947C
:10279000DDB4DDB4DDD5E615EE36EE36EE36EE56BA
:1027A000F676F676F697FE97F697F676F676F6567E
:1027B000F677F657F657F657F657F657F657F65791
:1027C000F656EE56EE36EE36EE35EE15F636F65693
:1027D000F657F657F657F656F656F656F657F65794
:1027E000F677F677EE77EE56EE77EE77EE77EE57F2
:1027F000EE77EE98EEB8EEB9F6FAF6FAF71AFFBDF4
:10280000FFDDFFDDFFBDFFFEF79DFFDEF7DEEF9D85
:10281000EF5DEF3CEF5DF79EF77DEF7DF79EFFDF0D
:10282000F7BEFFFFFFFFE73CC638BE37D71ACEF929
:1028300053284B466C6B53689D92CED9CE99D6DB0C
:10284000CE79ADB69D34A5959CF3B5D66BAE7C30F4
:10285000A555951394D295137C507C508CD28471DD
:102860006BCE84718471849194F39D138CB2AD9678
:10287000A5558C918C929534A5B6B618BE59BE3824
:10288000C639CE5AC639CE7AC67AD6DBDEDCE71C2C
:10289000E73DDF3CE75DE75DF7BFF7BFEF9EE75D34
:1028A000B5B6E75DE71DF7DFEF7EC659E73DFFFFF1
:1028B000C553C553CD74CD74C553C513C512C512C8
:1028C000BCF1BCD1B4B0B490AC6FAC2EB46FBCF161
:1028D000D573D594DDB4DDD5E5F5E5F5E5F5E6157B
:1028E000EE36EE35F656F656F656F656F656F656D9
:1028F000F676F676F677F677F677F677F677F65693
:10290000F676EE56EE35EE35EE35EE35EE56EE3524
:10291000EE56EE56EE56EE56F656F656F656F65677
:10292000EE56F676F676EE56EE56EE77F677EE77CC
:10293000F697F697EE57EE77EE98EE77EE98EEB9BB
:10294000F71AFF5BFFBCFFFEFFBDFFDEFFDFF79E58
:10295000EF5DEF1CEF3DFFBFF79DF77DF79EFFDFBB
:10296000FFFFFFDFFFFFF7DEB5F7CE99530A5B4AA3
:102970003AA56C0953874B6763CB5B6C634C6B6EFA
:1029800073CE73EF7C30847194D28CB2951494F32F
:102990009D3494D28CD26B8D95138CB29D54ADD650
:1029A000ADB6B5F7BE18AD96B5F7ADB6ADB6A59553
:1029B000AD957C306BCEADD6D71CE79EE79EEFBEC3
:1029C000EFBFF7BFF7BFFFFFF7DFF7DFF7BFFFDFAF
:1029D000FFFFFFFFF7FFF7FFF7DFF7BFF7DFFFFFAF
:1029E000CE7ADEFCF7BFFFDFEF7ECE9AF7BFF7DFD0
:1029F000BCD1BCF2BD12C533C512BCF2B4D1B4B166
:102A0000B490AC90AC70AC4F9BEE93AC9BCDAC2F24
:102A1000BCF1C532CD53CD73D5B4DDD4DDF4E5F5CD
:102A2000E615EE15EE15EE35EE35EE35F636F656C4
:102A3000EE56EE56EE56EE76EE76EE56EE56E6355F
:102A4000EE35E635E635EE35EE55EE55EE55E63526
:102A5000E635E635EE36EE55EE55EE35EE35EE352D
:102A6000EE35EE56EE76EE56EE56EE56F676F676F7
:102A7000F677EE77EE77F698EE77EE77EE97E63626
:102A8000E677EEB8F73AFF7BFFBDFFFEFFFFEF7D75
:102A9000F77DEF3DEF3DFFBFF79EF79EF79EFFDF0F
:102AA000FFDFFFDFF7BEFFFFB5F6C678194329C485
:102AB000534863C94B4653888D31951294F39CF368
:102AC0009D13AD95ADB6A595ADB5AD95ADD6ADF7AC
:102AD000ADB6ADB594F35B2CCEDA9D34CEDAEFBE55
:102AE000EFBEDF5CF7DFEFBEEFBEE75CE75DDF3C2C
:102AF000D6FBC6588450C679F7FFF7DFF7DFF7DF5C
:102B0000EF9EF7DFEFBFDF1CFFFFFFFFFFFFFFFFC1
:102B1000EF9EF7DFFFFFF7FFE75DFFFFFFFFFFFF20
:102B2000EF7ED69AFFDFFFFFFFDFE73DFFFFFFFFEE
:102B3000B4B1B4B1B4D1BCF2BCF2B4D1B4B1B4D17B
:102B4000B4B1B490AC70AC4FA40E938C936C93CD95
:102B5000A40EAC6FB4B0BD11CD52D593DDB4DDD4AD
:102B6000DDD4E5F4E5F5E5F5EE15EE15EDF5EE153C
:102B7000E635E635E635E635E635E635E635E6357D
:102B8000E635E635E635E655E635E635E635E6354D
:102B9000EE55EE55EE55EE56EE55EE55EE55EE551C
:102BA000EE55EE55EE35EE55EE55EE56EE56F67602
:102BB000F677F677F697EE56EE77F698EE77EE77AD
:102BC000EE97EE97EED8E698EF1AF75CFFDEFF9DE2
:102BD000F77DEF3DEF3DFFBFF79EFFBEF79EFFBFC6
:102BE000FFFFFFFFFFDEFFFEB5D6B5D65B2A3A67D3
:102BF00063CA42E65BC95BC9A5F4C6B8DF1CDEFB4D
:102C0000DF1BDF1BD71BD6FAD71ACEDAD6FBD71BB2
:102C1000CEDACEDABE58ADD6CEBA9513EFDEDF3CB3
:102C2000E77DDF1CD71BDF1BD6FBE75DB617BE3881
:102C3000DF1CC638B5B6EFBEEFBECEDAE77DF7FFD4
:102C4000E77EEF9ECE9AAD76FFFFFFFFFFFFFFFF0F
:102C5000DEFCF7DFF7FFEF9ED6DBFFFFFFFFFFFF96
:102C6000FFFFE71CF79EFFDFFFFFFFFFFFDFFFFF18
:102C7000A470A44FB4D1BD12B4B1B4D1BCF2B4D1DC
:102C8000BCD2B4B1BCD1B491B470A40F9BCE9BCDD7
:102C9000A40EA42EAC4FB4B0BCF1CD52D573D573F5
:102CA000D593D593DDB4DDB4DDB4DDB4E5D5E5F57C
:102CB000E5D4E5F4E615E615E615E615E615E5F5C1
:102CC000E5F4E5F4E5F5E614E614E615E615EE356B
:102CD000EE35EE35EE35EE35EE35EE35EE35EE35DC
:102CE000EE35EE35E655E655EE55EE55EE56EE561A
:102CF000EE56EE57EE77F677F677EE56F677F6B7AE
:102D0000F6B8F697EE97E697E677EED9FF5BFF9D6C
:102D1000EF3CF77DF77EF79EF77DF79EF7BEFFDF6E
:102D2000FFFFFFDFFFFFFFFEBDD6B5D673CD320537
:102D30004AE85B695B89746C9DB3ADD5DEFBD6BA9E
:102D4000D6FAD6FAEFBCDF5BDF3BE7BDE79DC6B93D
:102D5000D6FACEDAB637CEDA8CD2BE58C679BE38BD
:102D6000D6FBD6FBA575BE189D14D6FB94F39D1417
:102D7000C6387BEFDF1CFFFFE75D8471CE9ADF1C56
:102D8000D6FCDF1CA535AD76FFFFF79FFFFFFFFFE9
:102D9000D6DBEF9EFFFFEF7DD6BBFFFFFFDFFFFF20
:102DA000FFFFFFFFEF5DFFDFF7BFFFDFFFDFFFFF8D
:102DB00062A9836C8BCE942FA470ACD1B512B4D120
:102DC000B4D1B4D1B4B1BCF2BCF2B491AC2FB470F4
:102DD000AC2FA44FB490BCD1BCF1C512CD32C512FA
:102DE000CD53D553D573D594DD94DD94DD94DD9426
:102DF000DDB4DDB4DDD4E5D4E5D5E5D4E5D4E5D462
:102E0000DDD4E5D4E5F4E5F4E5F5E5F4E5F5E5F440
:102E1000EE15EE15EE15EE15EE15EE35EE35EE353A
:102E2000E635E655E655E635E635E635EE55EE3659
:102E3000EE36EE56EE57F677F677F677F697FEB75C
:102E4000F697F697EE76EE97F6D8EEB8EEB8F71A54
:102E5000CE17B575F77DFFBEF79EEF5DF77EFFFFDE
:102E6000FFFFFFFFFFDEF79DD699B5B573AD31E5E6
:102E700031E57C8E4B286C2CCEF8D71AD6D9DEFAE9
:102E8000AD94D6F9EFBCDF5BDF5BE79CC6B98CF293
:102E9000A5959D336BCE9513740FCEB98CB29D342E
:102EA000B5F7C6797C10B5D794B2D6DBCE9ABDF70C
:102EB000C6588C71FFFFFFFFFFFF7BEFBE18C6797E
:102EC000BE18DF1CA555EF5EFFDFF7BFFFFFFFFF5A
:102ED000DF1CF7DFFFFFF79EDEDBFFFFFFDFFFDF1B
:102EE000FFBFFFFFE73DFFFFFFDFFFFFF7BFFFDF94
:102EF0005A894A0739A65A8983AE8BEF942FACB111
:102F0000ACB1AC91AC90B491BCB1BCB1B490B47064
:102F1000BCB1BCB1B490B470B490BCD1C4F2CD32E9
:102F2000CD33CD33D533D553D553DD74DD74DD9436
:102F3000DD94DD94DD94DDB4E5B5E5D4E5B4E5B428
:102F4000DD94DD94DDB4DDB4DDB4E5D4E5F5EE1556
:102F5000EE15E615E615EE15EE15EE35EE35EE3509
:102F6000E635E635E635E635E635E635EE35EE3579
:102F7000EE56EE56EE56EE57EE57EE56F656F676FF
:102F8000F696F697EE76F697F6D8EEB8EE98F6D96E
:102F9000D6174A07A4D3C5F7FFFFF79DF79EFFBFDB
:102FA000FFFFFFFFF7BDFFFFDEFBAD75A53410C1CE
:102FB00031E56BEC53696C2CA5B4DF3A8C70A5122B
:102FC00073CDBE15EFBCDF5BD71ADF3AD73B9D74DC
:102FD000ADF6A5958CD2B5F7ADB58491B5F7B5D65C
:102FE000D6BABE388CB2A5758C71AD75B5B68430C5
:102FF000BE18BE17FFDFF7BEFFDFCE59DF1CDEFCB9
:10300000BE38EF9ED6DBF7DFFFFFF79EFFFFFFDF47
:10301000E75DFFDFFFFFF7BFE71CFFFFFFDFFFDF1D
:10302000FFDFFFFFF77DFFDFFFBFFFFFFFDFFFDFFA
:10303000738E83EF83EF528939A6398549E77B6C1C
:10304000A471A490AC91B4B1B4D1B4B1BCD1BCB1B1
:10305000C4F2B4B1AC50AC50B4B1B490B470BCB123
:10306000C4F2C4F2C4F2C4F2CCF2CCF2CD12CD124E
:10307000D533D553D573DD94DD94DD94DD73DD73E5
:10308000D553D553D573D573DD93DDB4E5F5EE1582
:10309000E615E615EE35EE35EE35EE35EE35EE3568
:1030A000E635E635E635E635E635EE35EE35EE362F
:1030B000E635E636EE36EE56EE56EE56F656EE5659
:1030C000F676F676F697F6B7EE97F6B8F6D8F6F9FE
:1030D000F71AFF9D39650820D679F79EFFDFF7BF05
:1030E000FFDFFFDFFFFFFFFEEF5CBDD6B5B5632B53
:1030F00073AD7C4F9531C6D7D739CED8BDF5CE57F5
:10310000CE77A553FFFEDF3AE77CCED9D73B9513A8
:103110009554B637B617C699A575AD95A555C67918
:10312000DEFBC6798CB2B5D7AD75B5D78C919CF363
:10313000AD75C638F79EFFBFF7BECE59E73CC679DE
:10314000CEBAE75DFFFFFFFFFFFFF79EFFFFFFFF28
:10315000EF5DFFDFFFFFF7BFE6FCFFFFFFFFFFFFB5
:10316000FFFFFFDFFFFFFFDFFFBEFFFFFFFFFFFFF0
:10317000634D5B0C5B0C84108C51840F738D41E6A6
:1031800029036ACA8BEE9C50ACB1A470B4B1B4D21E
:10319000A450AC70AC70AC70B4B1AC70A42FA42FC0
:1031A000AC2FB44FB490BCB1C4D1C4F2CD12CD1287
:1031B000C4F1C4F1CD12CD32CD32CD12CD12CD122B
:1031C000CD32D553D573DD94DDB4DDD4E5D5E61528
:1031D000E615E635E635EE56E635E635E635E6350E
:1031E000E635E635E635E635E635EE35EE35EE35EF
:1031F000EE36EE36EE56EE56EE56EE57EE57EE56ED
:10320000EE56EE76F697F6B7EE97F6B8F6D8F6D90C
:10321000FF3AFF5BFF9D31650820AD34FFFFF7BF2C
:10322000FFFFFFDFFFFFFFFFE73CBDB6DEDAD69909
:10323000F7BD9D324AE75B699531C676E71AE71A12
:10324000D69873CDEFBDDF3BDF5BDF3BD71A9D74B4
:10325000B6379533A595ADB6A575ADB6D6DADF3CD4
:10326000FFFFC6598471F7FFF7FFF7FFFFFFF7FF76
:10327000F7DEF7BEF7BEFFDFFFFFF7BFF7DEF7DFD2
:10328000EFBEF7FFF7DFFFDFFFFFF7BEFFFFFFFF38
:10329000EF5DF7DFFFFFF7BFDEFCFFFFFFFFFFFF84
:1032A000FFFFFFDFFFFFFFBFFFDFFFFFFFFFFFDFCE
:1032B00052EC5B0C5B0C5AEC5B0C632C6B6D84303A
:1032C000840F5AA94A0741A549C6940F9C50ACD215
:1032D000C574A4909C4FA44F93EE93EEA44FA44FBB
:1032E000A42FAC4FAC4FB46FB470B490BC90BCB0D2
:1032F000C4F1C4F2C512CD12CD12C512CD12CD3219
:10330000CD32CD52CD52D573D593D594DDB4DDD425
:10331000DDF4E615E635E635E635E615E615E6159F
:10332000E635E635E635E615E615E615EE15EE1555
:10333000EE36EE36EE36EE36EE36EE36EE36EE366D
:10334000EE36EE76EE76EE96F6D8F6D8F6D8FF198B
:10335000FF3AFF3BFF9DEEFB080018A2FFFFF79E20
:10336000FFDFFFDFFFFFFFDEFFBECE59BDD6BDF79B
:10337000BDF694F12A033A64848ED6D8D698CE77D7
:10338000DED9F7DEFFFFF7FEE77CE79CDF5C9553B5
:10339000B637A595F7FEF7FFFFFFF7DFFFFFF7FF53
:1033A000F7FFBE599D14F7FFEFDEF7DFEFBED6FB48
:1033B000CEBACE79FFFFE71CF7BEB596B5F7B5F7E5
:1033C000A555BE38F7BEFFFFFFFFF79EFFFFFFFFCB
:1033D000EF7DF7DFFFFFFFDFDEFCFFFFFFFFFFFFFB
:1033E000FFDFFFFFFFDFF77EFFDFFFDFFFFFFFDF16
:1033F0004A8A4A8A52AB52AB5AEC5AEB52CB630B15
:10340000632C73AE84307BCE7BAE42074A075AA949
:1034100062AA942FA4919C4F9C4F9C2F93CD93CD47
:103420009BED93CD93AC9BCC9BEDA3EDA40EAC2E6A
:10343000AC6FB46FB48FB490BCB0B4B0BCD0C4F1B6
:10344000C4F1BCF1C4D0C4F1C511C531CD52CD73A6
:10345000D593DDB3E5F4E615E615E615E615E615B4
:10346000E635E635E635E615E615E615E615EE151C
:10347000E615E5F5E5F5E615E616E616E636EE564A
:10348000EE36EE76E656EE76F6D8FEF8FF19FF3AFF
:10349000FF3AFF3BDE37FF3C290339A6FFFFF79ECB
:1034A000F7BEFFFFFFFFEF9DF77DCE58C617D6B9D9
:1034B000F7BC636A5B685B688CEF9D51FFFDFFFEA4
:1034C000FFFEE73BC679A57594F3BE37A5B58D130E
:1034D0008CF295339533ADB56BAE7C1073EF8C9257
:1034E0009514BE599D349513849184B2ADB68CF277
:1034F000C679C679FFFFFFFFF7BECE59EFBEC6798A
:10350000E77DF7FFBE17D6BAFFDFF79EFFFFFFFF8D
:10351000EF7DF7BFFFFFF7DFDEFCFFFFFFFFFFFFE1
:10352000FFFFFFFFFFDFEF3DDEDBFFFFFFFFFFFFE2
:103530004A6A4A8A426A42493A294AAA52EB4AAA44
:1035400052EB52CB4A895B0C634C73AE73CE738DD6
:103550006B2B62A96B0A7B6C736B7B6C8BAD83AC42
:103560008BAC838C8B6B93AC93CC93AC93CC9BCD7B
:1035700093AC9BCDA3EEA42EA42EAC2EAC4FB48F57
:10358000BCD0B4B0B4B0BCD0BCF1C4F1C511CD3125
:10359000D552DD73E5B4E5D4E5F5E615E615E61597
:1035A000E635E635E635E615E616E636E636E6367F
:1035B000EE36E615E615E616E616E5F5E615E63608
:1035C000E636EE56EE97EEB7EEB8F719FF1AF6F9B3
:1035D000FF1AFF1AFF5CD61752489CB2F79EEF7D88
:1035E000F7BEFFFFFFFEFFFFFFFFDEDACE79A53358
:1035F00094D15308740B84CD53077C2C94B0630A88
:103600005AEABDF7D6FBD6FBD71BEFDED71BA5B515
:10361000ADF6ADD6D71BD6FBCEDAC679CEBAD6FB81
:10362000E77DCEFB8CD2C6BAB638B6587C708CF328
:10363000BE389D34FFFFFFFFFFFFA534B5F7BE384E
:10364000ADD6DF3CB5B6B5D6FFDFFFDFFFDFFFFF4E
:10365000EF7DF79FFFFFF7BFDEDCFFFFFFFFFFFF00
:10366000FFFFFFDFFFFFE71CB596FFFFFFFFFFFF38
:10367000426942494249424942494249426A428A70
:103680004AAB4AAB4AAB4AAB4ACB52EB5B0C632C1E
:103690006B6D6B6C6B4C6B2B6B2B6B0A5A6849E632
:1036A00051E65A276AA972EA836B8B8C834B8B6C29
:1036B00093AD9BEE9C0F8B8C9BEE9BEEAC4FAC7056
:1036C000AC6FB470AC4EB46FB48FBC8FBC8FC4D031
:1036D000CCF1CCF1CD11DD73E5D4E5F5E5F5DDD424
:1036E000DDD5DDF5DDF5DE15DDF5DDF5E636E65695
:1036F000E636DDF5E636EE77E636EE56F677EE564A
:10370000EE36E636E657DE36E677EED9EED9FF5BE3
:10371000FF7CFFBDACF25A89630BCE58D6BAF7BE18
:10372000FFFFFFDEFFDEFFDEFFDED6BADEDA632B51
:103730004A877C2C5B688CED8CCD73EBC636AD5321
:10374000BDD6EF9DF7DED6FADF5CD73BD73CA5B5FB
:10375000B617ADF69D95B61795138CF2A5B6ADB616
:103760009D75DF3C8CB2BE588CF3E79DB637BE38F2
:10377000CE9A8450FFFFF7DFF7FFA575C699AD9687
:103780009D54C679ADB6A555F79EFFFFFFDFFFFF3D
:10379000F7BFF7BFFFFFFFDFD6BBFFFFFFDFFFFF76
:1037A000FFFFFFFFFFFFFFBFBDB7FFFFFFBFFFFF33
:1037B0003A283A283A293A493A493A493A493A2973
:1037C00032283A293A293A2932083A283A494269AC
:1037D0004249424852AA630B632B736C7BAD734C16
:1037E0005A8941A531233103418452075A486289DD
:1037F00072CA6AAA72EB834C8B6D93AD9BCE93AD6C
:10380000A3EEAC2FA3CD938CA3CDAC2EB44FBC8F25
:10381000C490C4D0C4D1CD11D552D573D5B4D593ED
:10382000D5B4D5B4D5D4DDF5DDF5DE16DDF5D5D5C9
:10383000D5F5D5F5CDB4CDB4DDF5DDF5D594CD9484
:10384000D594CD94D616E6B8EEFAFF9DFFBDD658B6
:10385000AD12734B62EA5AEAA513A554D6BAF7BE65
:10386000FFFFFFFFFFFFFFBEFFFFDEDAC5F76B4B79
:1038700021424AC67C8C7C8B740AA571F79BCE785A
:10388000A533FFFFFFFFDF5BDF3BE79DDF5C9D753F
:10389000B637ADF68CF2A5D66C0F6C0F84B2A5B618
:1038A000BE79D73C94F3BE189513CEFB9554ADD694
:1038B000E75DB5D6FFFFF7DFF7DFCEBAC679C658AA
:1038C000BE38E75DD6FBEF7DFFFFFFFFFFFFFFFF89
:1038D000E73DD6BBBDF8B597D67ADEDCFFBFFFDF8C
:1038E000FFDFFFFFFFFFFFFFD69AF77EFFDFFFFF3F
:1038F0003A283228320832283A283A29322832081F
:10390000320832283208320831E729C731E8320854
:103910003A493A083A28424842284A695AEB630B26
:10392000736D6B4C6B2C52682923188120C2312394
:10393000314441A65A696ACA6ACA72CA7B0B832B90
:10394000834C8B4C936C934C936C9BACA3EDA3ED8D
:10395000AC0DB44EB46FBC8FBCD0CD32D593CD730B
:10396000CD72CD73CD93CD93D593D594CD93CD73A7
:10397000CD94CDB5D5D5CDB4CD74CDB4DE16DE376E
:10398000E698EEB9DE78D658AD33736C630B6B4CAA
:103990005ACA422742685B0B634C8CB1B5F7F7DF1C
:1039A000EF5CF79EFFDEF7BEFFFFEF7CC6379D1290
:1039B00052A752E77C8C84CD8CCDB5F3F79BD6B95A
:1039C000D699FFFFF7DEEFDDDF5BE79DD71B9D9507
:1039D000A595B637ADF6C6BA9D75ADF7B5F7C679FC
:1039E000D71BD6FB8CB2C679BE38CEDAADD7A5953B
:1039F000BE38C638F7DFFFFFF7BEE75DB5D7B5F7CE
:103A0000B5D7D6BADF1CFFFFFFDFF79EFFFFFFDF52
:103A1000E6FCCE7A94938411E71DF79FFFFFFFFF2A
:103A2000FFFFFFFFFFFFFFFFF79EF79EFFFFFFBFB8
:103A30003228322832083207320832083228320857
:103A40003A2932283A2832083208320831E831E877
:103A500029C73208320832083A283A083A284A690F
:103A60004A6952AA630B6B4C630B5ACB4A493185A6
:103A700020E3188120C2292441C6522852076248F7
:103A800062686A8972CA832B8B6C9BAD9BAD9BCDA0
:103A9000A40EAC4EAC6FB48FBCD0C532C552BD3194
:103AA000CD93CDB3CDB4D5D4D5D4D5B4DE16E67888
:103AB000EED9E698EEFAF73BEEB9E678D5F6B5130F
:103AC0009C70734C5A894A2739C631A631A629857C
:103AD0001944192429C64AAA532CC6794A8ADEFBFE
:103AE000FFDFF77DF79EF7BEFFDEF7BDC657BDF5DA
:103AF0006B8B73EB8CEE7C8C84AC9D50F79BDED98A
:103B0000C617FFFFFFFFF7FEE77CEFBDD73BA5D64B
:103B1000ADD6A595A595ADB69D549D33A595C65931
:103B2000E79DCEBA8CB2CEDACEDAD6FBD6FBD6FB88
:103B3000DEFBEF5DFFFFFFFFF7BEFFDFEF5DE73C62
:103B4000E73CEF7DF7BFFFDFFFFFF77EFFDFFFDF23
:103B5000F79FDEDCD69BCE59F7BFFFBFFFFFFFDF2D
:103B6000FFFFFFFFFFFFFFDFFFFFFFFFFFFFF79EEE
:103B700029A631C731E731E731E731E731E831E7ED
:103B800031E731E831E831E831E829C729C729A709
:103B900029C729E831E831E8320831E829C731C7B7
:103BA00031C731E73A08424952AA5AEB5ACB4A691F
:103BB00052AA4A4839A6292418A218A220E320C3F1
:103BC00020C231033103392441655A275A276248FC
:103BD00062686A886A8872EA7B2B7B4B7B6B7B2BE3
:103BE000732B732B7B2B7B4C7B4C7B6C83AD942F8B
:103BF0007B8D734C734C7B6C732C6AEA5A894A2810
:103C0000318520E318A2108218E3212410C319245F
:103C100021A62A073A694AEB8471C6590861B5960C
:103C2000F79EEF5DF79DFFBEFFBEFFFED698CE77F5
:103C30006B6A6B8A63A984CD7C2B7C2CDEF8D678EA
:103C4000DEDAFFFFF7FEEFBDDF3BD73BD71B9D75ED
:103C5000ADD6ADD6D6FAC679CE99C659D6DBDF3CFD
:103C6000E75DCEBA94F3E77DEF9EEF9EEF9EF7BE41
:103C7000FFBFFFDFFFDFFFFFFFDFFFFFFFFFEF9E65
:103C8000FFDFFFDFFFFFFFDFFFFFEF5DFFDFFFFF76
:103C9000FFFFDEDBFFDFEF7EFFFFFFDFFFFFFFFF4A
:103CA000FFFFFFFFFFFFFFDFFFFFFFFFFFDFFFFF64
:103CB000218529A629C629C629C629C629C729C7F3
:103CC00029C731E73208320831E729C729A729A7D0
:103CD00029A7218621862186218629A729C729A7E8
:103CE00031C729A629A631C731C73A08426952CB44
:103CF00052AA39E7296531853186002010611041CB
:103D00001061106120C220A20800186120A2208149
:103D100018612081208128E2310328E3290328E368
:103D20001881188118A118C220C220E320E320C204
:103D30001081106108200840108110610841108135
:103D40000841108118E3190410C3212531C731E857
:103D500032284ACB636D5B2C8472D6BB0000C63917
:103D6000DEFBEF7DFFDEFFDEFFDEFFFED698C657EF
:103D700052A85B084AC65B88742B8CCEEF5ACE37AC
:103D8000B595F7DEF7FFDF5CD71AD6FADF7DB617F9
:103D9000B638B5F6F7DEF7FFFFFFF7DFFFFFFFFFEF
:103DA000EF9EEF9EAD96DF3CF7DFFFFFFFFFFFFFCB
:103DB000FFFFFFFFFFDFFFFFFFFFFFFFFFFFFFDF53
:103DC000FFFFFFDFFFFFFFFFFFFFE6FCFFFFFFFF3F
:103DD000FFBFE6FCFFDFEF7EFFFFFFDFFFFFFFFF20
:103DE000FFFFFFFFFFFFFFFFFFFFFFFFFFDFFFFF03
:103DF00029A529852185218521852185298629A631
:103E000029A631C731E731E731E831E731E731E859
:103E100029C729A729A729C729C729C731C731C752
:103E200031E829A631C731E73A08424842483A28E2
:103E300010820820082010823186296539A618E3EF
:103E40002924210439A620E31061084018A210811A
:103E500018821861104118611041082008200800DC
:103E60000820084108410861108210A310A20861CF
:103E7000088210A210A210C210C310C318C318E306
:103E800010C3088218E3296629863A084A8B426AD9
:103E90003A0831E83A086B4DAD35C5F82925F77D6C
:103EA000E6FBEF7DFFDEF7BDFFDEFFFED6B9C636CF
:103EB0007C0D63495B4821A18CADA571F7BCD6B9D7
:103EC000AD75FFFFF7FED71BEFBDE77CE77DE7BED3
:103ED000CEBAADB6EFDEF7FFFFFFFFFFFFFFFFFF3C
:103EE000FFFFF7DEC699DF1CEF9EFFFFFFDFFFFF3E
:103EF000FFDFFFFFFFDFFFFFFFFFFFFFFFFFFFFF12
:103F0000FFFFFFDFFFFFF79EFFFFE6FCFFDFFFBEC7
:103F1000EF5DD6BAF79EFFFFFFFFFFDFFFFFFFFF5A
:103F2000FFFFFFFFFFDFFFFFFFFFFFFFFFFFFFFFC1
:103F300029A6218521652165216521652145214528
:103F4000216521652165298629A731C731E731E837
:103F500031E73A0831E73A083A2831E729C63A0703
:103F60003A0831C63A0831E731C642483A08214595
:103F7000002000200821000000004A285AAB39A781
:103F800039C739C739A7000018A2108220E318E307
:103F900018C318A318A318C320E420E318C418C337
:103FA00018C318C318C318E410E410E410E419048B
:103FB00010E310E410C310C3190419241924212498
:103FC00019042145298631A731C729662946298642
:103FD000210529665ACBA514CE39526A83EFFFFF1B
:103FE000EF5CEF3CF7DEEF7CF79DFFDDE6FAD6B83D
:103FF00094B06BAB638932448CEE7C2CDF19FFFEEE
:10400000F79DFFFFFFFFEFDEF7DEEFBDE77DEFFF80
:10401000CEBA9D54F7DEFFFFFFFFFFDFFFFFF7DFA4
:10402000FFFFDF3CB5F7E75DFFFFF7BEFFFFFFDFF8
:10403000FFDFFFFFFFFFFFFFFFFFFFFFFFFFFFFFB0
:10404000FFFFFFFFFFBFF77EFFFFFFBEEF3CDEDBA2
:10405000D69AE71CFFFFFFDFFFFFFFDFFFFFFFFF39
:10406000FFFFFFFFFFFFFFFFFFFFFFFFFFFFFFFF60
:1040700029852985214421652144298521442165FB
:104080002145214421451924212521652145296601
:104090002985296529652985298529A631C73A07F2
:1040A0003A2831C631E729A5298531E63A2810C2D8
:1040B00000000841000008210821082139A7526AA0
:1040C0004A294A49084108000800082108200861D7
:1040D000002000200821108218E3210429253166E0
:1040E000318629662965298621451925190419046F
:1040F0001904190410E410E310C310C308A32145E8
:104100001924190421452124212510A221043186D6
:104110004A498C10F79ED67962EC41E7D679FFFFC9
:10412000F77DE73CF7BDEF7CEF5CFFBDF77CD6B9D0
:104130006B4B5B094AA6742B740B6369E73AEF7CFF
:10414000E71BEF9DF7DEEF9DE75CEF9DE79DCEDB84
:10415000BE78ADF6EFBEF7DFFFFFFFFFFFDFF7BE74
:10416000F7DE9D34A555F7FFF7BEF7BFFFFFFFFF52
:10417000FFFFFFFFFFFFFFFFFFFFFFFFFFFFFFDF6F
:10418000FFFFFFFFEF7DFFBFFFDFE71CD69AE71CB5
:10419000E71CF7BEFFFFF7BEF79EFFFFFFFFFFDF45
:1041A000FFFFFFFFFFFFFFFFFFFFFFFFFFFFFFFF1F
:1041B0002965298529852165214529852144216590
:1041C00021442144212421242124190419042124D7
:1041D00019042124214421452144214421652985B4
:1041E00029A621642164214431C629854248002042
:1041F000086100000821000000001042188320C45C
:104200003166080008201082106220E320E318C302
:1042100010C310A2088108610841086108610841C3
:10422000108210C319042124294529862986214595
:104230002145214629862166214510E4190410E311
:1042400010E310A22124296531865ACA8C51B57514
:10425000E6FBEF1CC5D752695AEB8430C617FFFE48
:10426000FFFFE71CE71BEF1BEF3CF79DF79DCE78A8
:104270007C0E42666BCA7C4C6BEB8CAFB5B4C63718
:10428000EF9DC659DF3BEF9DD6FAEF9DD6FB8CB272
:10429000ADB6D71BF7FFF7DFFFFFF7DEF7BEFFFF77
:1042A000CEBA8CB2CEDAFFFFE75DFFFFFFFFFFDF84
:1042B000FFDFFFFFFFFFFFFFFFFFFFFFFFFFFFDF4E
:1042C000FFFFF77EFFFFFFDFEF5DD69ADEBBFFFF4C
:1042D000FFDFFFFFFFFFFFDFFFBFFFDFFFFFFFFF8E
:1042E000FFFFFFFFFFFFFFFFFFFFFFFFFFFFFFFFDE
:1042F00021242965296521442965296529652965C0
:10430000296521452124214429652145212418E3DB
:10431000210418E310C310C318E319041904190386
:104320001903190319031924216519243A280020B7
:1043300000200000082108410020082000000000A3
:104340000020082131A7294529652965298531C61D
:1043500031C629A531C63A273A0729A52144212487
:10436000088100410040086108410021002100212E
:10437000088200420041088210A32125212539E846
:104380004A696B6D9D14BE17E73CDEFBE73CB595B3
:10439000734D7BAE42076B6D21445B2BCEB9EFBDF5
:1043A000F7BDE6FBE6BAEF3CE6FBF79DFFDECE98F5
:1043B000CE98844ECEF7A5B15B69B5F4F7FDF7BD95
:1043C000F7BEF7BEFFFFEF9DEF7CE73CCE799D1473
:1043D000B5F7D71BD6DADF1CE75CDEFBDEFBEF9D13
:1043E000B5D6B5F7E77DF7BEF7BEEF5DFFFFFFBFC0
:1043F000FFFFFFDFFFFFFFFFFFFFFFFFFFFFF7BF35
:10440000EF7DF79EFFDFF79ED6BAFFFFEF5DFFFF60
:10441000FFFFFFFFFFFFFFFFFFFFFFFFFFFFFFFFAC
:10442000FFFFFFFFFFFFFFFFFFFFFFFFFFFFFFFF9C
:1044300031C631C631A631A639C6294431A63186E6
:104440002965294529452124212421452145214546
:1044500021042124212521241903190319031903F7
:10446000190318E31904192410E310E33A28004152
:104470000021002000000861000000000020002052
:1044800008612124214410A210C2216510E210C24B
:1044900010E21964298519441923216421652144F6
:1044A00031C631C739E739C731C631A6296521047C
:1044B0002105318631A7420952AB630D738E73AF6C
:1044C0007BCF7BEF6B6D5B0B39C6296529855289E4
:1044D0005289318618E2006021A5742FC678FFFF4B
:1044E000F79DEF5CDE99FFDEF73CFFBEEF7DCE99D6
:1044F000CE78CEB8CEB708E06BCA7C2DA553B5B543
:10450000AD95AD96BE18D6DAB5D6EF9DBE17AD9671
:10451000B5B6EF9DF7BEFFFFF7DEFFFFEF9EE77D2D
:104520007C30E73CFFFFEFBEFFFFF79EFFDFFFFFA2
:10453000FFFFEF5DFFFFFFFFFFDFF7BEFFFFF7BEEF
:10454000F7BFFFFFE73DDEFBFFFFFFFFFFFFFFDFE2
:10455000FFFFFFFFFFFFFFFFFFFFFFFFFFFFFFFF6B
:10456000FFFFFFFFFFFFFFFFFFFFFFFFFFFFFFFF5B
:104570004228420739E7318639C631A631A6296576
:104580003185318539E731A629652965296531A647
:1045900031862945210418E4190321242124190313
:1045A000212410C210E310E3190308A231C6000051
:1045B00008820021000000000000084100000020E7
:1045C00021043186088229854268218531E63A072F
:1045D00031C6218519241924194410E308C210C2D8
:1045E0000881088210A210E310C310C32125296698
:1045F000210510A329462966210518E418C318E4EB
:10460000210429452965294531C631A610A200207B
:104610000000084010E242683A4873CEF7DEF7DE49
:10462000DEBAE6FBF73CEEFBD659F77DF79ECE9956
:10463000CE989D1163AB6C0B5B488CCFF7BCFFFE33
:10464000FFFFFFFFFFFFFFFFFFFFEF7DAD75BDF732
:10465000AD75FFFFF7BEE73CFFFFD6BAFFFF9D3405
:10466000ADB6FFFFF7BEFFFFFFFFFFFFF79EFFFFA7
:10467000FFDFE73CFFFFEF9EFFFFFFDFD6BAD6BAB2
:10468000FFFFD6BAB5B6FFFFFFFFFFFFFFFFFFFF3B
:10469000FFFFFFFFFFFFFFFFFFFFFFFFFFFFFFFF2A
:1046A000FFFFFFFFFFFFFFFFFFFFFFFFFFFFFFFF1A
:1046B00039E739C64A494A494A694A4841E74A28D6
:1046C0004A2839C639A639C639E739E73165294557
:1046D0002945296531663186296529652965298538
:1046E00029442144296510C218E318E3212439C75D
:1046F0000000000000000020002008210820002009
:104700000020000008610861002010A110E210C222
:104710002124296531A631C739E731E731E73A0766
:1047200031C729A6214410C310C3190418E4084254
:1047300010A318E40862004100410841000008216C
:1047400000000021002100000020086118C318E3C8
:1047500031A64A8931A618E30060B5D6FFFFFFFFF6
:10476000D699E71BDEBADE9ADEDAF79DFFFFE71B7C
:10477000DEFA21634AC73224742C740CD6F9EF9DFB
:10478000FFFFEF9EF7DFD6BACE78FFDE7BCEC638CE
:10479000CE79F7BEFFDFEF9ED6DADF1BB5F77BEFF2
:1047A000D6BAEF7DF7BEE73CDEDBFFDFEF5DF7BF9C
:1047B000E71CF7BEFFFFEF5DF7BFFFFFDEFBFFDF8C
:1047C000FFDFEF5DFFFFF7BEF79EFFFFFFFFFFFF7D
:1047D000FFFFFFFFFFFFFFFFFFFFFFFFFFFFFFFFE9
:1047E000FFFFFFFFFFFFFFFFFFFFFFFFFFFFFFFFD9
:1047F000108118C220E318A2108118E320E331458C
:10480000292439A642074A494A494A284A694A6935
:104810004A694A2841E741E739E739C631A631A656
:1048200031A531853185296531854207212442072B
:1048300010820020000008410821000010410800FB
:10484000080010212904080008200800104010204A
:10485000102110201020084010612103318631C63C
:1048600031A629A631C731C731C731C731E731E792
:1048700029A61904298629862165296631862945B4
:1048800029662104316639A72966318629252945FB
:1048900031C7004008810020CE58FFBEFFFFFFDF78
:1048A000CE38D679D679DEDADEDAEF7DFFDEEF3C80
:1048B000C6178CD05B6A84EF84AE6BECCE98DEFAC0
:1048C000C659C659BE18E73CD6B9BDF7AD75A53473
:1048D000E71CEF3DEF7DEF7DEF9EF7DED6DAB5D634
:1048E000FFFFFFDEFFFFFFDFFFFFFFFFFFFFF7BF61
:1048F000E73CFFDFF79EFFFFEF7EF79EFFDFEF7ED7
:10490000D6BAD6BAFFDFFFDFFFFFFFDFFFFFFFFFF3
:10491000FFFFFFDFFFFFFFFFFFFFFFFFFFFFFFFFC7
:10492000FFFFFFFFFFFFFFFFFFFFFFFFFFFFFFFF97
:1049300039C618E3084139C6420721030840084038
:104940002924316518A21081108220E339C63185EF
:104950003186318531A639E74207420742284A4865
:104960004A6942484A485ACA39E74228528939C6F0
:10497000422808410000000000000820080008004C
:1049800041863944418651E77B2C8BCEACB2ACB228
:104990009C30730B5A484185208110401061106192
:1049A0001061106118C321442965296529652965AD
:1049B000298631C631C729A629652145212521250A
:1049C00018C3210520C42905106110411061104150
:1049D000106118C36B0CD658FF5DF73CFF9DFFBEFE
:1049E000EEFB41E7E71BC617C617EF5CFFFFFFDED4
:1049F000DEFADEF9CED7742C5B4973ECEF9CF7DD61
:104A0000F7DEE75DEF9DF7BEF79DF79DDEDBB59620
:104A1000FFFFF79EFFFFFFFFF7BEF7DEB5B6EF9E85
:104A2000FFFFFFFFFFFFFFFFFFDFFFDFFFFFFFFFD6
:104A3000F7BEF7DFFFFFFFFFF79EFFFFEF5DE71C0D
:104A4000FFBFF79EFFFFF7BEFFFFFFFFFFFFFFFF68
:104A5000FFFFFFFFFFFFFFFFFFFFFFFFFFFFFFFF66
:104A6000FFFFFFFFFFFFFFFFFFFFFFFFFFFFFFFF56
:104A7000210318C239C6528941C6106120C231656E
:104A8000318510611061084018C2108118E218C207
:104A900020E3292418E3108110A2108118C210A26B
:104AA00018E32103296531A639A642074A4852690D
:104AB0004A4952AA31A61081526949E75A685207F9
:104AC00049C672EA9C2FB4D1BCF2C513CD74DDD6B1
:104AD000E617DDF6D5B5CD74C553B4F29C508BCE38
:104AE0006289398518811040106110811081108110
:104AF000108210A2108210821062106110620841B0
:104B00000821106110411041186131245A898BCE5F
:104B1000A471BD54DE58E678F6FAFF7CFF5CFFBE58
:104B2000FFBE104183EF7BEE840FC617D699738DBD
:104B30009CD294B08C8F6B8B6B8B8C8FDF19EF7C3E
:104B4000FFFFFFFFFFDF8430E6FBFFFFBDD7E73C41
:104B5000FFFFFFFFFFFFFFFFFFFFE75DC659EF9E6F
:104B6000E73DEF5DF79EF7BEFFBFFFBFFFBFF77EDC
:104B7000FFFFFFFFFFDFFFFFFFFFE73CEF5DFFBF32
:104B8000FFFFFFFFFFFFFFFFFFFFFFFFFFFFFFFF35
:104B9000FFFFFFFFFFFFFFFFFFFFFFFFFFFFFFFF25
:104BA000FFFFFFFFFFFFFFFFFFFFFFFFFFFFFFFF15
:104BB00018E321035ACA4207292318C239A55248CB
:104BC000188118A20820108218C210A11081084074
:104BD00008401081106108401081108110A21081DE
:104BE0001081108110A218A218C218E321042944D0
:104BF00018C3294539A652695A8952275A6872EA58
:104C00007B2B9C4FC532C552BCF1C511CD53D57419
:104C1000E636EE57EE77EE77F698F6B8EE78DE37B2
:104C2000D5D6BD34A49194308BEF83CE7B8D736C3D
:104C3000734C734C734C7B4C7B6D7B6D7B6E734DF7
:104C40007B6D838E83AE8BCF9410A491BD33D5D66C
:104C5000DDF7DE17DE16E657F6B8F6FAF71BFF7C2F
:104C6000FFDE524829035AA94A27738DBDD69CD22C
:104C70006B2BCE575AC9844E6B8B844E8C8FAD9460
:104C8000C658CE58BDD78C518430A4F38C30DEDAB0
:104C9000C618C618D69ACE79CE9AAD96DEFCE73CF9
:104CA000E71CE73CEF5DF79EFFDFFFDFF7BEF77E17
:104CB000F79EFFBFF77EFFFFEF5DEF7DFFBFFFDFDA
:104CC000FFFFFFFFFFFFFFFFFFFFFFFFFFFFFFFFF4
:104CD000FFFFFFFFFFFFFFFFFFFFFFFFFFFFFFFFE4
:104CE000FFFFFFFFFFFFFFFFFFFFFFFFFFFFFFFFD4
:104CF0006B2C52695ACA420749E652485A893144D4
:104D0000106120E318A2290320E320E318C21081D8
:104D100018A11081106010A118A120E318C218C3B7
:104D200018C218A220E318C218C218C2290431659B
:104D30002924316541C641C641A65A686AC98BCD4E
:104D4000B4F1BD32C573C552C532CD53CD73CD5309
:104D5000D5B4DE16E656EE56EE77F697EE98EE5799
:104D6000EE78EE99EEB9EEB9EEB9E699E678DE574F
:104D7000DE16DE16D5F5D5D5CDB5CD75C575BD1408
:104D8000C555C555CD55CD55D575D596D596DDB6F8
:104D9000DDD6DDF6DDF5E636EE98F6D9FF3BFF5BB6
:104DA000FF7CB534102041E639A531445A89738D12
:104DB00031859490630A6B8C632A7C0D6B6BA553D1
:104DC000D6B9DEFBD69AAD76B5968430AD55EF5C9C
:104DD000D6DBDEFBDEFBE71CD6BAC638FFDFF79E6C
:104DE000F7BEF7BEFFDFFFFFFFDFFFDFFFFFFFDFE5
:104DF000F79EF77EFFBFEF7DE71CFFFFFFBFFFFFC2
:104E0000FFFFFFFFFFFFFFFFFFFFFFFFFFFFFFFFB2
:104E1000FFFFFFFFFFFFFFFFFFFFFFFFFFFFFFFFA2
:104E2000FFFFFFFFFFFFFFFFFFFFFFFFFFFFFFFF92
:104E30009C9183CE62EA6AEA732B6B2B5A6831230A
:104E400039853165420741E7318531442944294498
:104E50003185292429233185294431852944294450
:104E6000314529243145294439A639A641C74A2864
:104E700052485A8962CA5A6862A9838C9C2EBD33F3
:104E8000CD94CD93CD73CD73CD52CD52D573D5B4D2
:104E9000DE15EE57EE97EE97EE97F697F698F677C3
:104EA000E637EE98FED9FEDAF6D9F6B9F6B9F6B8D5
:104EB000FEB8FEB8F698EE77E616DDD6DDB6D595E7
:104EC000D555D555D534CD34D534DD55DD75DD9684
:104ED000DDB6E637E636E636EE76EEB8FF3BFF3B6C
:104EE000FF7CDE58186049E6398531241882290391
:104EF000294439E66B2B630A9CF273CD73ADA5335D
:104F0000FFDEF7BEEF5DB5B6EF5D94B2AD75FFFFA6
:104F1000F7DFF7DFF79EFFFFDEFCFFDFFFDFFFFFBE
:104F2000FFFFFFDFFFFFFFFFFFBFFFDFFFFFFFFF11
:104F3000FFBFFFDFF77EE73CF79EFFDFFFFFFFFFCE
:104F4000FFFFFFFFFFFFFFFFFFFFFFFFFFFFFFFF71
:104F5000FFFFFFFFFFFFFFFFFFFFFFFFFFFFFFFF61
:104F6000FFFFFFFFFFFFFFFFFFFFFFFFFFFFFFFF51
:104F70009CB194507B8D83CE8BEE83AD4A065A88CC
:104F800052484A276B2B5AA952684A0741C64A071A
:104F90004A2741E65227526852684A484A0741E781
:104FA00049E741E74A284A285A895A895A896AEBC7
:104FB000732C7B4C8BCE940F8BCDA470BCF2CDB4F4
:104FC000D5B4D593D5B4D5B4D5B3CD72D593DDF4DE
:104FD000DDF4E636EE77EE76F697F6B7FEB8FEB875
:104FE000F677F698FE98F698F678F677F697F6B88C
:104FF000F697F697F677F677EE36E616E616E5F6C6
:10500000E5D6DDB6DD95D554D533D554DD74E595BB
:10501000E5D6DDD5E5F5EE56F697F6D8FF1AFF5B37
:10502000FF9DF6FA208149E641854A07290420C3FD
:10503000292431654A4841C6B594B594AD33A513CA
:10504000DEDAF79EDEDBC618E73CBDF79CF3EF7DAA
:10505000FFDFF79EF7BEEF5DDEDBFFDFFFDFFFFF69
:10506000FFDFFFDFFFDFFFFFFFDFFFDFF7BEF79EA2
:10507000FFFFEF5DEF3DF7BEFFDFFFBFFFFFFFDF8D
:10508000FFFFFFFFFFFFFFFFFFFFFFFFFFFFFFFF30
:10509000FFFFFFFFFFFFFFFFFFFFFFFFFFFFFFFF20
:1050A000FFFFFFFFFFFFFFFFFFFFFFFFFFFFFFFF10
:1050B000A4D29C919C919C70942F83AD62A97B8C0F
:1050C00062A96B0B7BAD6B2B732B62CA5A896AEAA0
:1050D00062CA5A896B0B6AEA6B0B5A8962AA5A69CF
:1050E0005A8A6AEB734C734C734C734D734C8C0F30
:1050F0009C509C70A491B4D2AC90B4F2CD73D5B452
:10510000DDF5D5D4D5B4DDD4DDD4DDB3DDB3DDD468
:10511000DDF4E615EE56EE76F677F697FEB7FEB7B7
:10512000FEB8FEB8FEB8FEB8FE98F697F697F6976A
:10513000FEB8F698F678F678EE57EE37EE37E616C4
:10514000E5F6E5D5E5D5DDB5DD94E594E5B4E5B561
:10515000E5D5DDB4EE16F677F697F6B7F6B8FEFAB3
:10516000F6FAFF3B416430E249C65248290418A2CE
:1051700010612924316520E3736CC5F6DEDAB5755C
:1051800083EFE6FBC638CE58DEFBAD95CE78C63849
:10519000EF7DF79EEF5DCE79EF5DF7BEFFFFEF7E0F
:1051A000F7BFFFFFFFFFFFDFFFFFFFDFEF7DF79E92
:1051B000FFFFC618FFDFFFFFFFDFFFFFFFDFFFFF7F
:1051C000FFFFFFFFFFFFFFFFFFFFFFFFFFFFFFFFEF
:1051D000FFFFFFFFFFFFFFFFFFFFFFFFFFFFFFFFDF
:1051E000FFFFFFFFFFFFFFFFFFFFFFFFFFFFFFFFCF
:1051F000B554A4D29C91ACD19C908BED8BED8BCD12
:105200007B6B942E942F83CE83CE7B6C734C83AEBA
:105210007B8D7B6C7B8D734C732B6AEB732C732CA7
:105220007B6D83AE83AE8BEF83CE943083CEA4B1FF
:10523000A491B513C574CDD5D5F5CDB4D5D5E63685
:10524000EE56E636E615DDF4DDB4DDB3DDB3DDD4D0
:10525000E5F4E615EE35F656F676F676FE97FE9709
:10526000FE97FE97FEB8FEB8FEB8FEB8FEB8F698F8
:10527000F6B9F6B9EE78EE98EE78EE58EE58E617F5
:10528000DDF6DDD5DDF5E5F5DDD4DDD4DDD4DDB449
:10529000E5D5E5D5EE36F676F676F697FEB8FEFA63
:1052A000FEFAF6B97B2B206041A549E7398610410B
:1052B000080029243145294431654A07B575D67956
:1052C0007BCF9471B575DEBAC6178430FFFEB5B6D4
:1052D000C638DEDBD69ACE59EF7DF79EF7BEE73DA6
:1052E000F7BEFFFFFFFFFFDFFFFFFFFFF7BFF7BFC7
:1052F000F7BFD69AFFFFFFFFFFFFFFFFFFFFFFFF94
:10530000FFFFFFFFFFFFFFFFFFFFFFFFFFFFFFFFAD
:10531000FFFFFFFFFFFFFFFFFFFFFFFFFFFFFFFF9D
:10532000FFFFFFFFFFFFFFFFFFFFFFFFFFFFFFFF8D
:10533000BD74B533ACF2B512ACF1940D9C2E942E25
:105340009C2EA4B0ACD1A4909C70940F8BEF9C5079
:10535000940F942F8BCE8BEE7B4C838D83AE8BEE94
:105360009C50A4B29C71A4919C30A4D29C50B534A2
:10537000B4F2D5F6D617E678EE98EE98E636E6362D
:10538000EE56EE56E635E615E5F5E5F4E5F4E5F519
:10539000EE35EE35F656F676FE77F677FE97FEB8E2
:1053A000FEB8FEB8FEB8F698F698FEB8FED8FED95C
:1053B000F6B9F6BAF6B9F6B9EE79EE78EE78E637E0
:1053C000E637E616E616E615DDF4DDD4E5F5E61576
:1053D000E5F5EE15EE36FE97FE97FE76FE97FED9C2
:1053E000FEFAEE37AC90288128E320E341E718C3AA
:1053F0000821108239A6106139C642074207B55507
:10540000F75D9471A4F3D699B595BDD6FFFEFFFF65
:10541000CE79EF5DFFFFFFFFFFFFFFDFFFFFFFFF25
:10542000FFFFFFFFFFFFFFFFFFFFFFFFFFDFEF5D5E
:10543000F79EFFFFFFDFFFDFFFFFFFFFFFFFFFFF25
:10544000FFFFFFFFFFFFFFFFFFFFFFFFFFFFFFFF6C
:10545000FFFFFFFFFFFFFFFFFFFFFFFFFFFFFFFF5C
:10546000FFFFFFFFFFFFFFFFFFFFFFFFFFFFFFFF4C
:10547000C5B5B533ACD2B512ACB09C4EA46F9C4E42
:10548000ACD1B532B512ACF2ACB1A4B19C70ACD217
:105490009C509C70940F940F8BCE942F9C2FA4B192
:1054A000ACF2ACD2ACF2B513ACD2B513ACF2C5B51C
:1054B000B533DE78E678EED9EED9F6D9EE77E63672
:1054C000E636EE56EE56EE36EE15E615EE15EE1510
:1054D000EE35EE35F656F656F677FE97FEB8FEB880
:1054E000FEB8FEB8FEB8FEB8FEB8FED8FED9FED9AA
:1054F000FED9F6DAF6B9F6B9F699F698EE78EE78BE
:10550000EE78EE37E637E616E5F5E5F5E616E6154C
:10551000EE16EE16F677FE97FE77FE97FE97F65795
:10552000FED9F658C5123923208120E339C718C3A4
:105530000020108231860840294541E718A239A68B
:105540009CB2C5F783EF7BCE94B2DEFAE73BF7DE81
:10555000FFFFB596EF5CFFDEF7BEEF5DF79EFFDF66
:10556000FFFFFFFFFFFFFFFFFFFFFFFFEF5DEF7E8E
:10557000FFFFFFFFFFFFFFFFFFFFFFFFFFFFFFFF3B
:10558000FFFFFFFFFFFFFFFFFFFFFFFFFFFFFFFF2B
:10559000FFFFFFFFFFFFFFFFFFFFFFFFFFFFFFFF1B
:1055A000FFFFFFFFFFFFFFFFFFFFFFFFFFFFFFFF0B
:1055B000C595B513B533CDB5A490B4F1B511A46FAD
:1055C000C553CDB4CDB5C594BD74BD54B513C57424
:1055D000ACD2B4F2A491ACB1A4B1B513B513BD541F
:1055E000BD74C575C575CDB6C595D617CDB6DE7972
:1055F000CDF6FF5CF71AF73AEED9F71AFF19F6F96C
:10560000EE97F697F677F677EE56EE36EE36EE56DE
:10561000EE36EE35EE36F656F677F677FE98FE98CD
:10562000FEB8FEB8FEB8FEB9FEB9FED9FED9FED965
:10563000FED9FED9FED9FEB9F6B9F699F698F678F4
:10564000F678EE57EE57EE37E616E5F6E616E6166E
:10565000EE16F657F677FE97FEB8FE56F616FE578C
:10566000FE78F637BCD172A91860398518E31904A1
:1056700010A2002018C329450820630B31450840BB
:105680000800292462EB4A284207C617DEFABDF655
:10569000D6BAF7BEBDD6C638FFFFFFFFF79EE71CA0
:1056A000F79EFFDFFFDFFFDFFFDFD6BBF7BFFFFFA8
:1056B000E73DF7BEFFFFFFFFFFFFFFFFFFFFFFFF1D
:1056C000FFFFFFFFFFFFFFFFFFFFFFFFFFFFFFFFEA
:1056D000FFFFFFFFFFFFFFFFFFFFFFFFFFFFFFFFDA
:1056E000FFFFFFFFFFFFFFFFFFFFFFFFFFFFFFFFCA
:1056F000C595BD74C595BD53ACB1B4F1B4F1ACB0B2
:10570000D5D5D5D5CDD5CDB5CDB5CDB5C574C574AB
:10571000BD53BD53ACD2ACF2B513C595C595CDD62E
:10572000CDD6D5F6CDD6D637D617EEB9DE37EEDAEA
:10573000DE78FFBDEF1AFF7CFF3AFF7BFF3AF6D819
:10574000F6D8F6B8F698F697F677F677F677F6770E
:10575000F676EE76EE76F677F697F698F698F69871
:10576000FEB8FEB9FEB9FEB9FEB9FEB9FEDAFEB961
:10577000FED9FED9FED9FEB8FEB8FEB8FE98F6985E
:10578000F698F677F657EE57EE36EE16EE16EE165C
:10579000E5F5FE98FE98F677FE97FE57F616FE574B
:1057A000EDF6E5D6D574A44F1000082031A61903F4
:1057B00031A618C3084139C6106120E339C720E378
:1057C000082018A229244A282924086021235AEAFB
:1057D0005AEB39E7F7BEDEDABDD7FFFFFFBEFFFFAA
:1057E000F79EFFDFFFDFF79EEF5DEF9EF7DFC61846
:1057F000D6DBF7DFFFDFFFDFFFFFFFFFFFFFFFFF6E
:10580000FFFFFFFFFFFFFFFFFFFFFFFFFFFFFFFFA8
:10581000FFFFFFFFFFFFFFFFFFFFFFFFFFFFFFFF98
:10582000FFFFFFFFFFFFFFFFFFFFFFFFFFFFFFFF88
:10583000C595C595BD54C574B4F2CD94C553B4D1C6
:10584000DE36D5F6D5F6CDD5CDB5CDD5C574BD539F
:10585000C574C574B513B513BD54CDB5C595CDD6B6
:10586000D5F6D617D617DE78DE58F6FADE58F71AD0
:10587000D658FFDDEEFAFF7CF73BFF3AFF1AFEF940
:10588000F6D8F6B8F6B8F697F697F697F677F6776D
:10589000F697EE97EE77EE77F697F698F698F67815
:1058A000FEB8FEB8FEB8FEB9FEB9FEB9FEB9FEB943
:1058B000FEB9FEB8FEB8FEB8FEB8FEB8FE98FE9877
:1058C000FE78F657F657F657F637EE36EE36EE36E2
:1058D000F637F657F677FE97FE77F636FE57FE78E0
:1058E000FE78EDF6E5D5A40E6268080029242104AF
:1058F00010A200200000108218C30841528A18A28A
:105900002924294418A2296539C731652103420792
:105910004228A5342965632CB5757BEFB596FFFF4A
:10592000FFDFFFFFFFFFEF7DFFFFE71CBE18CE7913
:10593000DEFBFFFFFFFFF7DFFFFFFFFFFFFFFFFFC4
:10594000FFFFFFFFFFFFFFFFFFFFFFFFFFFFFFFF67
:10595000FFFFFFFFFFFFFFFFFFFFFFFFFFFFFFFF57
:10596000FFFFFFFFFFFFFFFFFFFFFFFFFFFFFFFF47
:10597000C595C595BD33BD33B4D1C553CD74C5539D
:10598000E678E657DE57DE37D5D5CDD5CD94C5942C
:10599000C595CDB5C595C595CDD6D617D5F6D5F651
:1059A000D617DE58DE58EEDAEEDAFF5CEED9FF5C91
:1059B000D637FFDEF73BFF7CFF5BFF3BFF1AFF198B
:1059C000F6D8F6D8F6B8F6B8F698F697F697F697AA
:1059D000EE97EE97EE77EE97F698F698F698F6989B
:1059E000FEB8FEB8FEB8FE98FEB8FE99FE99FE9984
:1059F000FEB8FEB8FEB8FEB8FEB8FEB8FE98FE9837
:105A0000FE98F677F657F657F677F677F657F65785
:105A1000F677EE36F677FE97F656EE36FE77FE9878
:105A2000FE78F637F698CD538BAD5A47080020C361
:105A3000398618C2082000202945212418E342286D
:105A4000294510A21061108121032965318510A21A
:105A500021240881212418E318C24A482103212463
:105A600041E7B575D6BAFFDFE75DDF1CA534E73C3B
:105A7000D6DBEF7DFFFFFFFFFFFFFFFFFFFFFFFF15
:105A8000FFFFFFFFFFFFFFFFFFFFFFFFFFFFFFFF26
:105A9000FFFFFFFFFFFFFFFFFFFFFFFFFFFFFFFF16
:105AA000FFFFFFFFFFFFFFFFFFFFFFFFFFFFFFFF06
:105AB000C595CDD6D5F6CD95C553BD12C554C553A4
:105AC000EE78E658E657DE57D616D5F6CDB5CDB406
:105AD000C594C5B5CDD6CDD6D617DE37DE58DE583F
